:100000000C9434000C9449000C9449000C94490061
:100010000C9449000C9449000C9449000C9449003C
:100020000C9449000C9449000C9449000C9449002C
:100030000C9449000C9449000C9449000C9449001C
:100040000C9449000C9449000C9449000C9449000C
:100050000C9449000C9449000C9449000C944900FC
:100060000C9449000C94490011241FBECFEFD8E036
:10007000DEBFCDBF11E0A0E0B1E0EAE1F3E002C0F5
:1000800005900D92A031B107D9F70E9462010C943E
:100090008B010C940000EFE9FFE03197F1F700C00D
:1000A0000000880F880F880F805C8BB929982C9AE4
:1000B000F5E0FA95F1F700002C98299AEFE8F1E0C5
:1000C0003197F1F700C000008295807F8BB92998A5
:1000D0002C9AF5E0FA95F1F700002C98299A8FE810
:1000E00091E00197F1F700C00000FB01685F7F4FCE
:1000F0008FE891E00197F1F700C00000DF018191E6
:100100008BB9299A2C9A95E09A95F1F700002C98D2
:1001100029988FE891E00197F1F700C000008C91D9
:100120008295807F8BB9299A2C9A95E09A95F1F760
:1001300000002C9829988FE891E00197F1F700C012
:100140000000E617F707A1F6089595E09A95F1F7F4
:1001500000008BB9299A2C9AE5E0EA95F1F70000A6
:100160002C982998EFE8F1E03197F1F700C00000F2
:100170008295807F8BB9299A2C9AF5E0FA95F1F750
:1001800000002C9829988FE891E00197F1F700C0C2
:1001900000000895EFE9FFE03197F1F700C000009B
:1001A0008BB929982C9AF5E0FA95F1F700002C9874
:1001B000299AEFE9FFE03197F1F700C0000082953E
:1001C000807F8BB929982C9AF5E0FA95F1F7000019
:1001D0002C98299A089582E184B98FEF8AB92FEF7C
:1001E00039EF80E0215030408040E1F700C000004E
:1001F00080E38BB929982C9A95E09A95F1F7000045
:100200002C98299AEFE1FEE43197F1F700C0000045
:100210008BB929982C9AF5E0FA95F1F700002C9803
:10022000299A2FEF31EE94E0215030409040E1F7D1
:1002300000C000008BB929982C9AE5E0EA95F1F707
:1002400000002C98299A8FE193E00197F1F700C004
:10025000000080E28BB929982C9A95E09A95F1F7E5
:1002600000002C98299A88E20E94CA008CE00E9423
:10027000CA0081E00E94CA0086E00E94CA00089578
:100280008068EFE9FFE03197F1F700C000008BB91B
:1002900029982C9AF5E0FA95F1F700002C98299A04
:1002A000EFE9FFE03197F1F700C000008295807F11
:1002B0008BB929982C9AF5E0FA95F1F700002C9863
:1002C000299A08950E94EB0060E071E080E00E94AE
:1002D0004B0080E00E94400180E00E94A50080E287
:1002E0000E94A50081E40E94A50086E50E94A50069
:1002F00082E50E94A50080E40E94400187E4C0E0FE
:100300000E94A500CF5FEC2FF0E0E85FFE4F8081F8
:0A0310008111F6CFFFCFF894FFCF64
:10031A00000A1F1F1F0E04004772616369617300A0
:00000001FF
